:060000000A128A110E290C
:10000800F008030EF1080B190E20F10E8308F00E0C
:10001800700E0900031383123D3081000B11880113
:1000280021181A282408870008141D282508870085
:0800380088140130A106080044
:100200008A010A140F3982073F3406345B344F34B5
:1002100066346D347D3407347F3467343F212621C2
:100220002D21031383125930A00018211F211329F7
:1002300020080F39A200200E0F39A3000800220861
:100240000021A40023080021A50008000313831641
:100250000F178F160F120F14080003138316811245
:1002600081110115811401140313831203138312E6
:100270003D3081000B118B178B160B1108000317F3
:1002800083168801890103138316870108108810DB
:0A02900003138312870188010800A0
:04400E00C420FF3F8C
:00000001FF
