:060000000A128A110E290C
:10000800F008030EF1080B1910200C181820F10E37
:100018008308F00E700E0900031383120A30810062
:100028000B118801A10A0800031383120B308F00FB
:0C00380098308E000C10A60AA90A0800DF
:100200008A010A140F3982073F3406345B344F34B5
:1002100066346D347D3407347F3467347A21492164
:1002200050215F216F210313831221181F21A11870
:10023000282121193721AA01280886001529081428
:1002400026080021A200220887000330A10608002A
:10025000881426082A302A080A3C03194121270855
:100260000021A300230887000430A1060800290804
:100270002A302908103C0319442128080021A40031
:100280000800A70AA6010800A80AA701A601A9015B
:100290000800031383160F178F120F160F14080090
:1002A00003138316811281110111811001100313B0
:1002B0008312031383120A3081000B110800031309
:1002C000831210139016101690119010101403132F
:1002D00083120B308F0098308E000C10080003132F
:1002E00083160C14031383128B160B110C100B17AF
:1002F0008B170800031783168801890103138316DF
:1003000087010810881008118811860103138312D1
:10031000870188018601A601A701A801A101A90101
:04032000AA01080026
:04400E00C420FF3F8C
:00000001FF
