:060000000A128A110E290C
:10000800F008030EF1080B1910200C183820F10E17
:100018008308F00E700E0900031383123D3081002F
:100028000B11880121182028A11824282119282813
:100038002208870008142C282308870088142F28F2
:1000480024088700081532282508870088153528D0
:100058000130A10608000330A10608000630A106F9
:1000680008000430A1060800031383120B308F0028
:0C00780047308E000C10A60AA80A0800F1
:100200008A010A140F3982073F3406345B344F34B5
:1002100066346D347D3407347F346734652134218E
:100220003B214A215A210313831226080A3C031951
:100230001F2128080F3C0319222127211529A70A6D
:10024000A6010800A90AA701A601A801080026081E
:100250000021A20027080021A30029080021A400F2
:100260002A080021A5000800031383160F178F1614
:100270000F120F1408000313831681128111011548
:100280008114011403138312031383123D30810080
:100290000B110800031383121013901610169011FF
:1002A00090101014031383120B308F0047308E0010
:1002B0000C100800031383160C14031383128B16FF
:1002C0000B110C100B178B170800031783168801EE
:1002D00089010313831687010810881008118811FB
:1002E000860103138312870188018601A601A701F5
:0A02F000A801A901AA01A10108005C
:04400E00C420FF3F8C
:00000001FF
