:060000000A128A110E290C
:10000800F008030EF1080B19152803138312F030BA
:1000180081000B113F21E9226E25732250247F2293
:0C0028005F24F10E8308F00E700E09003A
:100200008A010A140F3982073F3406345B344F34B5
:1002100066346D347D3407347F346734C925AF25A7
:10022000B625C525031383120518762185187B2171
:100230000519802185198521051A8A21142920088C
:10024000003A031D272924290130A00008002008B6
:10025000013A031D2F292C290230A0000800200894
:10026000023A031D372934290330A0000800200872
:10027000033A031D1F293C290030A0000800880113
:100280002008003A031D4D2945292F080021870029
:10029000081508108810881174292008013A031DD8
:1002A0005A2952292E080021870088150810881025
:1002B000081174292008023A031D67295F293908AB
:1002C000002187008814081008118811742920085B
:1002D000033A031D3F296C293808002187000814C0
:1002E00008118810881174291F2108000518762923
:1002F000B8212A23080085187B29D9214B2308001F
:10030000051980290622CC23080085198529222277
:10031000F3230800051A8A298E210800AD0A2D084A
:10032000031D92292D08023A031D982902308600E8
:100330002D08033A031D9E29043086002D08043A37
:10034000031DA429083086002D08053A031DAA299B
:10035000103086002D08063A031DB0292030860093
:100360002D08073A031D08000030AD00FA2D0800E3
:100370002D08043A031D0800AF0AA90A29082F080E
:100380000A3A031DC929AF012F088700AE0A2E08BB
:1003900087002908183A031D08000030AF002F0815
:1003A00087000030AE002E0887000030A900290821
:1003B00008002D08043A031D0800AF03A90329080B
:1003C0002908093A031DEB29AE012E0887000930E0
:1003D000AF002F0887002908FF3A031DF9290330D1
:1003E000AF002F0887000230AE002E081730A9009A
:1003F00029082908133A031D08000930AF002F0807
:1004000087000130AE002E08870008002D08043A4E
:10041000031D0800B90AAB0A2B0839080A3A031D64
:100420000800B90139088700B80A3808063A031DE0
:100430000800B80138088700B90139088700AB0106
:100440002B0808002D08043A031D0800B903AB036C
:100450002B082B08093A031D342AB80138088700F5
:100460000930B900390887002B08FF3A031D422ADA
:100470000930B900390887000530B80038083B302A
:10048000AB002B082B08313A031D4E2A0930B90066
:10049000390887000430B800380887002B08273A4D
:1004A000031D5A2A0930B900390887000330B80003
:1004B000380887002B081D3A031D662A0930B90049
:1004C000390887000230B800380887002B08133A33
:1004D000031D08000930B900390887000130B80051
:1004E000380887000800A40B08007A30A400B8225E
:1004F0007A220800A60A031D0800A60108002608A3
:10050000783A031D0800A601B90AAB0A2B0839087E
:100510000A3A031D0800B90139088700B80A3808EB
:10052000063A031D0800B80138088700B9013908E8
:100530008700AB012B08AF0AA90A29082F080A3A3D
:10054000031DA82AAF012F088700AE0A2E088700D6
:100550002908183A031D08000030AF002F08870053
:100560000030AE002E0887000030A90029080800DE
:10057000881EBD2ABB2A88120800881608002D088C
:10058000063A031DC42AC92A2D08033A031D080090
:10059000C92A2208003A031DD12ACE2A0130A2001E
:1005A00008002208013A031DD92AD62A0230A200E7
:1005B00008002208023A031DE12ADE2A0330A200C5
:1005C00008002208033A031DBF2AE62A0030A200D1
:1005D00008002D08063A031DEE2AF32A2D08033AD7
:1005E000031D0800F32A88012208003A031D012B8D
:1005F000F92A33080021870008150810881088118F
:10060000282B2208013A031D0E2B062B320800214D
:1006100087008815081088100811282B2208023A34
:10062000031D1B2B132B3108002187008814081091
:1006300008118811282B2208033A031DE92A202BD0
:100640003008002187000814081188108811282B11
:10065000BF2208002D08063A031D0800B30AA70AA6
:10066000270833080A3A031D3B2BB30133088700E0
:10067000B20A320887002708643A031D08000030D8
:10068000B300330887000030B20032088700003022
:10069000A700270808002D08063A031D0800B30329
:1006A000A70327082708093A031D5D2BB20132086A
:1006B00087000930B300330887002708FF3A031D7D
:1006C0006B2B0930B300330887000930B2003208C1
:1006D0006330A70027082708593A031D772B0930F4
:1006E000B300330887000830B200320887002708BB
:1006F0004F3A031D832B0930B300330887000730BE
:10070000B200320887002708453A031D8F2B0930B5
:10071000B300330887000630B2003208870027088C
:100720003B3A031D9B2B0930B3003308870005308B
:10073000B200320887002708313A031DA72B093081
:10074000B300330887000430B2003208870027085E
:10075000273A031DB32B0930B30033088700033059
:10076000B2003208870027081D3A031DBF2B09304D
:10077000B300330887000230B20032088700270830
:10078000133A031D08000930B30033088700013015
:10079000B2003208870008002D08063A031D080041
:1007A000B10AAC0A2C0831080A3A031D0800B1014D
:1007B00031088700B00A3008063A031D0800B0016E
:1007C00030088700B10131088700AC012C08003ADD
:1007D000031D08000130B100310887000030B0006F
:1007E0003008870008002D08063A031D0800B103F1
:1007F000AC032C082C08093A031D052CB001300865
:1008000087000930B100310887002C08FF3A031D2A
:10081000132C0930B100310887000530B0003008D2
:100820003B30AC002C082C08313A031D1F2C09303A
:10083000B100310887000430B000300887002C0870
:10084000273A031D2B2C0930B100310887000330F3
:10085000B000300887002C081D3A031D372C0930E2
:10086000B100310887000230B000300887002C0842
:10087000133A031D432C0930B100310887000130C1
:10088000B000300887002C08003A031D0800013032
:10089000B100310887000030B00030088700080040
:1008A0002D08033A031D0800A50B08007A30A500A7
:1008B0005A240800A80A031D0800A80108002808F7
:1008C000023A031D0800A801B103AC032C08003A4A
:1008D000031D712CB001300887000030B1003108D1
:1008E00087002C08093A031D7D2C0910B00130083F
:1008F00087000930B100310887002C08FF3A031D3A
:100900008B2C0930B100310887000530B000300869
:100910003B30AC002C082C08313A031D972C0930D1
:10092000B100310887000430B000300887002C087F
:10093000273A031DA32C0930B1003108870003308A
:10094000B000300887002C081D3A031DAF2C093079
:10095000B100310887000230B000300887002C0851
:10096000133A031DBB2C0930B10031088700013058
:10097000B000300887002C083B3A031D08000930FE
:10098000B100310887000530B00030088700B3039C
:10099000A70327082708093A031DD52CB2013208FE
:1009A00087000930B300330887002708FF3A031D8A
:1009B000E32C0930B300330887000930B200320855
:1009C0006330A70027082708593A031DEF2C093088
:1009D000B300330887000830B200320887002708C8
:1009E0004F3A031DFB2C0930B30033088700073052
:1009F000B200320887002708453A031D072D093049
:100A0000B300330887000630B20032088700270899
:100A10003B3A031D132D0930B3003308870005301E
:100A2000B200320887002708313A031D1F2D093014
:100A3000B300330887000430B2003208870027086B
:100A4000273A031D2B2D0930B300330887000330EC
:100A5000B2003208870027081D3A031D372D0930E0
:100A6000B300330887000230B2003208870027083D
:100A7000133A031D08000930B30033088700013022
:100A8000B2003208870008002D08053A031D492DE1
:100A90004E2D2D08023A031D08004E2D2308003A62
:100AA000031D562D532D0130A30008002308013AE1
:100AB000031D5E2D5B2D0230A30008002308023ABF
:100AC000031D662D632D0330A30008002308033A9D
:100AD000031D442D6B2D0030A30008002D08053A9E
:100AE000031D732D782D2D08023A031D0800782D63
:100AF00088012308003A031D862D7E2D360800212B
:100B000087000815081088108811AD2D2308013AB8
:100B1000031D932D8B2D34080021870088150810A4
:100B200088100811AD2D2308023A031DA02D982D21
:100B30003708002187008814081008118811AD2D8E
:100B40002308033A031D6E2DA52D350800218700CB
:100B50000814081188108811AD2D442508000313CE
:100B600083160F178F160F120F1408000313831626
:100B700081128111011581140114031383120313CF
:100B80008312F03081000B1108008B178B160B15A8
:100B900008000317831688018901031383161F3089
:100BA0008500860187010810881008118811031339
:100BB00083128501870187018801B801B901AF015E
:100BC000AE01A001A101A201B201B301B001B101C6
:100BD000A901A601A701AC01AA01A401A501A301D5
:100BE000B601B701B401B501A801AB01031383122B
:100BF000AD0108002D08003A031D08000130AD00CA
:040C00002D08860035
:04400E00C420FF3F8C
:00000001FF
